{
  "contractName": "FlightSuretyData",
  "abi": [
    {
      "constant": true,
      "inputs": [],
      "name": "airlineCount",
      "outputs": [
        {
          "name": "",
          "type": "uint256"
        }
      ],
      "payable": false,
      "stateMutability": "view",
      "type": "function",
      "signature": "0xf5526774"
    },
    {
      "inputs": [],
      "payable": false,
      "stateMutability": "nonpayable",
      "type": "constructor",
      "signature": "constructor"
    },
    {
      "payable": true,
      "stateMutability": "payable",
      "type": "fallback"
    },
    {
      "constant": true,
      "inputs": [
        {
          "name": "airline",
          "type": "address"
        }
      ],
      "name": "getAirlineVotes",
      "outputs": [
        {
          "name": "",
          "type": "address[]"
        }
      ],
      "payable": false,
      "stateMutability": "view",
      "type": "function",
      "signature": "0x6d47c815"
    },
    {
      "constant": false,
      "inputs": [
        {
          "name": "dataContract",
          "type": "address"
        }
      ],
      "name": "authorizeContract",
      "outputs": [],
      "payable": false,
      "stateMutability": "nonpayable",
      "type": "function",
      "signature": "0x67561d93"
    },
    {
      "constant": false,
      "inputs": [
        {
          "name": "dataContract",
          "type": "address"
        }
      ],
      "name": "deauthorizeContract",
      "outputs": [],
      "payable": false,
      "stateMutability": "nonpayable",
      "type": "function",
      "signature": "0x6e861c0e"
    },
    {
      "constant": true,
      "inputs": [
        {
          "name": "airlineAddress",
          "type": "address"
        }
      ],
      "name": "isAirlineActive",
      "outputs": [
        {
          "name": "",
          "type": "bool"
        }
      ],
      "payable": false,
      "stateMutability": "view",
      "type": "function",
      "signature": "0x13b0633c"
    },
    {
      "constant": true,
      "inputs": [
        {
          "name": "airlineAddress",
          "type": "address"
        }
      ],
      "name": "isAirlineRegistered",
      "outputs": [
        {
          "name": "",
          "type": "bool"
        }
      ],
      "payable": false,
      "stateMutability": "view",
      "type": "function",
      "signature": "0x010c5c97"
    },
    {
      "constant": true,
      "inputs": [],
      "name": "isOperational",
      "outputs": [
        {
          "name": "",
          "type": "bool"
        }
      ],
      "payable": false,
      "stateMutability": "view",
      "type": "function",
      "signature": "0xcd905dff"
    },
    {
      "constant": true,
      "inputs": [
        {
          "name": "contractAddress",
          "type": "address"
        }
      ],
      "name": "isContractAuthorized",
      "outputs": [
        {
          "name": "",
          "type": "bool"
        }
      ],
      "payable": false,
      "stateMutability": "view",
      "type": "function",
      "signature": "0x103aeda7"
    },
    {
      "constant": false,
      "inputs": [
        {
          "name": "mode",
          "type": "bool"
        }
      ],
      "name": "setOperatingStatus",
      "outputs": [],
      "payable": false,
      "stateMutability": "nonpayable",
      "type": "function",
      "signature": "0x110466ed"
    },
    {
      "constant": false,
      "inputs": [
        {
          "name": "airlineAddress",
          "type": "address"
        },
        {
          "name": "airlineName",
          "type": "string"
        },
        {
          "name": "voterAddress",
          "type": "address"
        }
      ],
      "name": "registerAirline",
      "outputs": [
        {
          "name": "success",
          "type": "bool"
        }
      ],
      "payable": false,
      "stateMutability": "nonpayable",
      "type": "function",
      "signature": "0x7c0dec10"
    },
    {
      "constant": false,
      "inputs": [
        {
          "name": "flightId",
          "type": "string"
        }
      ],
      "name": "buy",
      "outputs": [],
      "payable": true,
      "stateMutability": "payable",
      "type": "function",
      "signature": "0x492cc769"
    },
    {
      "constant": true,
      "inputs": [
        {
          "name": "flightId",
          "type": "string"
        }
      ],
      "name": "getInsuredAmount",
      "outputs": [
        {
          "name": "",
          "type": "uint256"
        }
      ],
      "payable": false,
      "stateMutability": "view",
      "type": "function",
      "signature": "0x0ac866ab"
    },
    {
      "constant": true,
      "inputs": [],
      "name": "creditInsurees",
      "outputs": [],
      "payable": false,
      "stateMutability": "pure",
      "type": "function",
      "signature": "0x36cee484"
    },
    {
      "constant": true,
      "inputs": [],
      "name": "pay",
      "outputs": [],
      "payable": false,
      "stateMutability": "pure",
      "type": "function",
      "signature": "0x1b9265b8"
    },
    {
      "constant": false,
      "inputs": [
        {
          "name": "payerAddress",
          "type": "address"
        },
        {
          "name": "amount",
          "type": "uint256"
        }
      ],
      "name": "fund",
      "outputs": [],
      "payable": true,
      "stateMutability": "payable",
      "type": "function",
      "signature": "0x7b1837de"
    }
  ],
  "bytecode": "0x60806040526001600060146101000a81548160ff02191690831515021790555060006002553480156200003157600080fd5b50336000806101000a81548173ffffffffffffffffffffffffffffffffffffffff021916908373ffffffffffffffffffffffffffffffffffffffff16021790555060018060003373ffffffffffffffffffffffffffffffffffffffff1673ffffffffffffffffffffffffffffffffffffffff1681526020019081526020016000208190555060c06040519081016040528060008152602001600181526020016040805190810160405280600d81526020017f4f776e6572204169726c696e650000000000000000000000000000000000000081525081526020013373ffffffffffffffffffffffffffffffffffffffff16815260200160001515815260200160011515815250600360003373ffffffffffffffffffffffffffffffffffffffff1673ffffffffffffffffffffffffffffffffffffffff16815260200190815260200160002060008201518160000155602082015181600101556040820151816002019080519060200190620001a892919062000241565b5060608201518160030160006101000a81548173ffffffffffffffffffffffffffffffffffffffff021916908373ffffffffffffffffffffffffffffffffffffffff16021790555060808201518160030160146101000a81548160ff02191690831515021790555060a08201518160030160156101000a81548160ff0219169083151502179055509050506001600281905550620002f0565b828054600181600116156101000203166002900490600052602060002090601f016020900481019282601f106200028457805160ff1916838001178555620002b5565b82800160010185558215620002b5579182015b82811115620002b457825182559160200191906001019062000297565b5b509050620002c49190620002c8565b5090565b620002ed91905b80821115620002e9576000816000905550600101620002cf565b5090565b90565b611ba980620003006000396000f3006080604052600436106100db576000357c0100000000000000000000000000000000000000000000000000000000900463ffffffff168063010c5c97146100e75780630ac866ab14610142578063103aeda714610191578063110466ed146101ec57806313b0633c1461021b5780631b9265b81461027657806336cee4841461028d578063492cc769146102a457806367561d93146102d25780636d47c815146103155780636e861c0e146103ad5780637b1837de146103f05780637c0dec1014610430578063cd905dff146104c3578063f5526774146104f2575b6100e5333461051d565b005b3480156100f357600080fd5b50610128600480360381019080803573ffffffffffffffffffffffffffffffffffffffff16906020019092919050505061076e565b604051808215151515815260200191505060405180910390f35b34801561014e57600080fd5b5061017b6004803603810190808035906020019082018035906020019190919293919293905050506107c7565b6040518082815260200191505060405180910390f35b34801561019d57600080fd5b506101d2600480360381019080803573ffffffffffffffffffffffffffffffffffffffff1690602001909291905050506108e0565b604051808215151515815260200191505060405180910390f35b3480156101f857600080fd5b5061021960048036038101908080351515906020019092919050505061092b565b005b34801561022757600080fd5b5061025c600480360381019080803573ffffffffffffffffffffffffffffffffffffffff169060200190929190505050610a0c565b604051808215151515815260200191505060405180910390f35b34801561028257600080fd5b5061028b610a65565b005b34801561029957600080fd5b506102a2610a67565b005b6102d0600480360381019080803590602001908201803590602001919091929391929390505050610a69565b005b3480156102de57600080fd5b50610313600480360381019080803573ffffffffffffffffffffffffffffffffffffffff169060200190929190505050610e3d565b005b34801561032157600080fd5b50610356600480360381019080803573ffffffffffffffffffffffffffffffffffffffff169060200190929190505050610f48565b6040518080602001828103825283818151815260200191508051906020019060200280838360005b8381101561039957808201518184015260208101905061037e565b505050509050019250505060405180910390f35b3480156103b957600080fd5b506103ee600480360381019080803573ffffffffffffffffffffffffffffffffffffffff169060200190929190505050611015565b005b61042e600480360381019080803573ffffffffffffffffffffffffffffffffffffffff1690602001909291908035906020019092919050505061051d565b005b34801561043c57600080fd5b506104a9600480360381019080803573ffffffffffffffffffffffffffffffffffffffff169060200190929190803590602001908201803590602001919091929391929390803573ffffffffffffffffffffffffffffffffffffffff16906020019092919050505061111f565b604051808215151515815260200191505060405180910390f35b3480156104cf57600080fd5b506104d8611a8a565b604051808215151515815260200191505060405180910390f35b3480156104fe57600080fd5b50610507611aa0565b6040518082815260200191505060405180910390f35b600060149054906101000a900460ff1615156105c7576040517f08c379a00000000000000000000000000000000000000000000000000000000081526004018080602001828103825260258152602001807f436f6e74726163742069732063757272656e746c79206e6f74206f706572617481526020017f696f6e616c00000000000000000000000000000000000000000000000000000081525060400191505060405180910390fd5b61061c81600360008573ffffffffffffffffffffffffffffffffffffffff1673ffffffffffffffffffffffffffffffffffffffff16815260200190815260200160002060000154611aa690919063ffffffff16565b600360008473ffffffffffffffffffffffffffffffffffffffff1673ffffffffffffffffffffffffffffffffffffffff16815260200190815260200160002060000181905550678ac7230489e80000600360008473ffffffffffffffffffffffffffffffffffffffff1673ffffffffffffffffffffffffffffffffffffffff16815260200190815260200160002060000154101580156107095750600360008373ffffffffffffffffffffffffffffffffffffffff1673ffffffffffffffffffffffffffffffffffffffff16815260200190815260200160002060030160149054906101000a900460ff16155b1561076a576001600360008473ffffffffffffffffffffffffffffffffffffffff1673ffffffffffffffffffffffffffffffffffffffff16815260200190815260200160002060030160146101000a81548160ff0219169083151502179055505b5050565b6000600360008373ffffffffffffffffffffffffffffffffffffffff1673ffffffffffffffffffffffffffffffffffffffff16815260200190815260200160002060030160159054906101000a900460ff169050919050565b60008060149054906101000a900460ff161515610872576040517f08c379a00000000000000000000000000000000000000000000000000000000081526004018080602001828103825260258152602001807f436f6e74726163742069732063757272656e746c79206e6f74206f706572617481526020017f696f6e616c00000000000000000000000000000000000000000000000000000081525060400191505060405180910390fd5b600560003373ffffffffffffffffffffffffffffffffffffffff1673ffffffffffffffffffffffffffffffffffffffff168152602001908152602001600020600201838360405180838380828437820191505092505050908152602001604051809103902054905092915050565b600060018060008473ffffffffffffffffffffffffffffffffffffffff1673ffffffffffffffffffffffffffffffffffffffff16815260200190815260200160002054149050919050565b6000809054906101000a900473ffffffffffffffffffffffffffffffffffffffff1673ffffffffffffffffffffffffffffffffffffffff163373ffffffffffffffffffffffffffffffffffffffff161415156109ef576040517f08c379a000000000000000000000000000000000000000000000000000000000815260040180806020018281038252601c8152602001807f43616c6c6572206973206e6f7420636f6e7472616374206f776e65720000000081525060200191505060405180910390fd5b80600060146101000a81548160ff02191690831515021790555050565b6000600360008373ffffffffffffffffffffffffffffffffffffffff1673ffffffffffffffffffffffffffffffffffffffff16815260200190815260200160002060030160149054906101000a900460ff169050919050565b565b565b600060149054906101000a900460ff161515610b13576040517f08c379a00000000000000000000000000000000000000000000000000000000081526004018080602001828103825260258152602001807f436f6e74726163742069732063757272656e746c79206e6f74206f706572617481526020017f696f6e616c00000000000000000000000000000000000000000000000000000081525060400191505060405180910390fd5b600034111515610b8b576040517f08c379a000000000000000000000000000000000000000000000000000000000815260040180806020018281038252601e8152602001807f43616c6c657220646964206e6f742073656e6420616e792066756e64732e000081525060200191505060405180910390fd5b670de0b6b3a76400003411151515610c31576040517f08c379a000000000000000000000000000000000000000000000000000000000815260040180806020018281038252602a8152602001807f52657175657374656420696e737572616e636520616d6f756e7420697320626581526020017f796f6e64206c696d69740000000000000000000000000000000000000000000081525060400191505060405180910390fd5b3373ffffffffffffffffffffffffffffffffffffffff16600560003373ffffffffffffffffffffffffffffffffffffffff1673ffffffffffffffffffffffffffffffffffffffff16815260200190815260200160002060000160009054906101000a900473ffffffffffffffffffffffffffffffffffffffff1673ffffffffffffffffffffffffffffffffffffffff16141515610d885760408051908101604052803373ffffffffffffffffffffffffffffffffffffffff1681526020016000815250600560003373ffffffffffffffffffffffffffffffffffffffff1673ffffffffffffffffffffffffffffffffffffffff16815260200190815260200160002060008201518160000160006101000a81548173ffffffffffffffffffffffffffffffffffffffff021916908373ffffffffffffffffffffffffffffffffffffffff160217905550602082015181600101559050505b34600560003373ffffffffffffffffffffffffffffffffffffffff1673ffffffffffffffffffffffffffffffffffffffff1681526020019081526020016000206002018383604051808383808284378201915050925050509081526020016040518091039020819055503373ffffffffffffffffffffffffffffffffffffffff166108fc349081150290604051600060405180830381858888f19350505050158015610e38573d6000803e3d6000fd5b505050565b6000809054906101000a900473ffffffffffffffffffffffffffffffffffffffff1673ffffffffffffffffffffffffffffffffffffffff163373ffffffffffffffffffffffffffffffffffffffff16141515610f01576040517f08c379a000000000000000000000000000000000000000000000000000000000815260040180806020018281038252601c8152602001807f43616c6c6572206973206e6f7420636f6e7472616374206f776e65720000000081525060200191505060405180910390fd5b60018060008373ffffffffffffffffffffffffffffffffffffffff1673ffffffffffffffffffffffffffffffffffffffff1681526020019081526020016000208190555050565b6060600460008373ffffffffffffffffffffffffffffffffffffffff1673ffffffffffffffffffffffffffffffffffffffff16815260200190815260200160002080548060200260200160405190810160405280929190818152602001828054801561100957602002820191906000526020600020905b8160009054906101000a900473ffffffffffffffffffffffffffffffffffffffff1673ffffffffffffffffffffffffffffffffffffffff1681526020019060010190808311610fbf575b50505050509050919050565b6000809054906101000a900473ffffffffffffffffffffffffffffffffffffffff1673ffffffffffffffffffffffffffffffffffffffff163373ffffffffffffffffffffffffffffffffffffffff161415156110d9576040517f08c379a000000000000000000000000000000000000000000000000000000000815260040180806020018281038252601c8152602001807f43616c6c6572206973206e6f7420636f6e7472616374206f776e65720000000081525060200191505060405180910390fd5b600160008273ffffffffffffffffffffffffffffffffffffffff1673ffffffffffffffffffffffffffffffffffffffff1681526020019081526020016000206000905550565b600084826000806000809250600460008673ffffffffffffffffffffffffffffffffffffffff1673ffffffffffffffffffffffffffffffffffffffff1681526020019081526020016000209150600090505b81805490508110156111fb578373ffffffffffffffffffffffffffffffffffffffff1682828154811015156111a257fe5b9060005260206000200160009054906101000a900473ffffffffffffffffffffffffffffffffffffffff1673ffffffffffffffffffffffffffffffffffffffff1614156111ee57600192505b8080600101915050611171565b82151515611297576040517f08c379a00000000000000000000000000000000000000000000000000000000081526004018080602001828103825260288152602001807f596f75206861766520616c726561647920766f74656420666f7220746869732081526020017f6169726c696e652e00000000000000000000000000000000000000000000000081525060400191505060405180910390fd5b89600360008273ffffffffffffffffffffffffffffffffffffffff1673ffffffffffffffffffffffffffffffffffffffff16815260200190815260200160002060030160149054906101000a900460ff1615151561135d576040517f08c379a000000000000000000000000000000000000000000000000000000000815260040180806020018281038252601a8152602001807f4169726c696e6520697320616c7265616479206163746976652e00000000000081525060200191505060405180910390fd5b60018060003373ffffffffffffffffffffffffffffffffffffffff1673ffffffffffffffffffffffffffffffffffffffff16815260200190815260200160002054141515611413576040517f08c379a00000000000000000000000000000000000000000000000000000000081526004018080602001828103825260188152602001807f43616c6c6572206973206e6f7420617574686f72697a6564000000000000000081525060200191505060405180910390fd5b600460008c73ffffffffffffffffffffffffffffffffffffffff1673ffffffffffffffffffffffffffffffffffffffff1681526020019081526020016000203390806001815401808255809150509060018203906000526020600020016000909192909190916101000a81548173ffffffffffffffffffffffffffffffffffffffff021916908373ffffffffffffffffffffffffffffffffffffffff1602179055505060046002541015611730576000600360008d73ffffffffffffffffffffffffffffffffffffffff1673ffffffffffffffffffffffffffffffffffffffff168152602001908152602001600020600101541415156115a1576040517f08c379a000000000000000000000000000000000000000000000000000000000815260040180806020018281038252602d8152602001807f4169726c696e6520697320616c7265616479207265676973746572656420627581526020017f74206e6f742066756e6465642e0000000000000000000000000000000000000081525060400191505060405180910390fd5b60c06040519081016040528060008152602001600181526020018b8b8080601f01602080910402602001604051908101604052809392919081815260200183838082843782019150505050505081526020018c73ffffffffffffffffffffffffffffffffffffffff16815260200160001515815260200160011515815250600360008d73ffffffffffffffffffffffffffffffffffffffff1673ffffffffffffffffffffffffffffffffffffffff1681526020019081526020016000206000820151816000015560208201518160010155604082015181600201908051906020019061168e929190611ad8565b5060608201518160030160006101000a81548173ffffffffffffffffffffffffffffffffffffffff021916908373ffffffffffffffffffffffffffffffffffffffff16021790555060808201518160030160146101000a81548160ff02191690831515021790555060a08201518160030160156101000a81548160ff021916908315150217905550905050600260008154809291906001019190505550611a78565b6000600360008d73ffffffffffffffffffffffffffffffffffffffff1673ffffffffffffffffffffffffffffffffffffffff16815260200190815260200160002060010154141561190a5760c06040519081016040528060008152602001600181526020018b8b8080601f01602080910402602001604051908101604052809392919081815260200183838082843782019150505050505081526020018c73ffffffffffffffffffffffffffffffffffffffff16815260200160001515815260200160001515815250600360008d73ffffffffffffffffffffffffffffffffffffffff1673ffffffffffffffffffffffffffffffffffffffff16815260200190815260200160002060008201518160000155602082015181600101556040820151816002019080519060200190611868929190611ad8565b5060608201518160030160006101000a81548173ffffffffffffffffffffffffffffffffffffffff021916908373ffffffffffffffffffffffffffffffffffffffff16021790555060808201518160030160146101000a81548160ff02191690831515021790555060a08201518160030160156101000a81548160ff021916908315150217905550905050600260008154809291906001019190505550611a77565b600360008c73ffffffffffffffffffffffffffffffffffffffff1673ffffffffffffffffffffffffffffffffffffffff1681526020019081526020016000206001016000815480929190600101919050555061197160028054611ac290919063ffffffff16565b600360008d73ffffffffffffffffffffffffffffffffffffffff1673ffffffffffffffffffffffffffffffffffffffff1681526020019081526020016000206001015410158015611a15575060001515600360008d73ffffffffffffffffffffffffffffffffffffffff1673ffffffffffffffffffffffffffffffffffffffff16815260200190815260200160002060030160159054906101000a900460ff161515145b15611a76576001600360008d73ffffffffffffffffffffffffffffffffffffffff1673ffffffffffffffffffffffffffffffffffffffff16815260200190815260200160002060030160156101000a81548160ff0219169083151502179055505b5b5b60019650505050505050949350505050565b60008060149054906101000a900460ff16905090565b60025481565b60008183019050828110151515611ab957fe5b80905092915050565b60008183811515611acf57fe5b04905092915050565b828054600181600116156101000203166002900490600052602060002090601f016020900481019282601f10611b1957805160ff1916838001178555611b47565b82800160010185558215611b47579182015b82811115611b46578251825591602001919060010190611b2b565b5b509050611b549190611b58565b5090565b611b7a91905b80821115611b76576000816000905550600101611b5e565b5090565b905600a165627a7a72305820e9655f685d5e0d86dc69d5f2d95bd2bc0b4f0e31f3b13f72952f9a777f3c11eb0029",
  "source": "pragma solidity ^0.4.25;\n\nimport \"../node_modules/openzeppelin-solidity/contracts/math/SafeMath.sol\";\n\ncontract FlightSuretyData {\n    using SafeMath for uint256;\n\n    /********************************************************************************************/\n    /*                                       DATA VARIABLES                                     */\n    /********************************************************************************************/\n    uint256 constant MIN_AIRLINES_TO_VOTE = 4;\n    uint256 constant MINIMUM_AIRLINE_FUNDING = 10 ether;\n    uint256 constant MAX_INSURED_AMOUNT = 1 ether;\n\n    address private contractOwner;                                      // Account used to deploy contract\n    bool private operational = true;                                    // Blocks all state changes throughout the contract if false\n\n\n    mapping(address => uint256) authorizedContracts;\n\n    // Airlines\n    uint256 public airlineCount = 0; \n    struct Airline {\n        uint256 fund;\n        uint256 voteCount;\n        string airlineName;\n        address airlineAddress;\n        bool isActive;\n        bool isRegistered;\n    }\n    mapping(address => Airline) private airlines;\n    mapping(address => address[]) private airlineVotes;\n\n    //Passengers\n    struct Passenger {\n        address passengerAddress;\n        uint credit;\n        mapping(string => uint) insuredFlights;\n    }\n     mapping(address => Passenger) private passengers;\n\n\n    /********************************************************************************************/\n    /*                                       EVENT DEFINITIONS                                  */\n    /********************************************************************************************/\n\n\n    /**\n    * @dev Constructor\n    *      The deploying account becomes contractOwner\n    */\n    constructor\n                                (\n                                ) \n                                public \n    {\n        contractOwner = msg.sender;\n        authorizedContracts[msg.sender] = 1;\n\n        airlines[msg.sender] = Airline({\n                fund:0,\n                voteCount:1,\n                airlineName:\"Owner Airline\",\n                airlineAddress: msg.sender,\n                isActive: false,\n                isRegistered: true\n                }); \n        airlineCount = 1;\n    }\n\n    /********************************************************************************************/\n    /*                                       FUNCTION MODIFIERS                                 */\n    /********************************************************************************************/\n\n    // Modifiers help avoid duplication of code. They are typically used to validate something\n    // before a function is allowed to be executed.\n\n    /**\n    * @dev Modifier that requires the \"operational\" boolean variable to be \"true\"\n    *      This is used on all state changing functions to pause the contract in \n    *      the event there is an issue that needs to be fixed\n    */\n    modifier requireIsOperational() \n    {\n        require(operational, \"Contract is currently not operational\");\n        _;  // All modifiers require an \"_\" which indicates where the function body will be added\n    }\n\n    modifier requirePaymentInRange()\n    {\n        require(msg.value > 0, \"Caller did not send any funds.\");\n        require(msg.value <= MAX_INSURED_AMOUNT, \"Requested insurance amount is beyond limit\");\n        _;  // All modifiers require an \"_\" which indicates where the function body will be added\n    }\n\n    function getAirlineVotes(address airline) public view returns (address[]) {\n        return (airlineVotes[airline]);\n    }\n\n    modifier requireHasNotVoted(address airlineAddress, address voterAddress) \n    {\n\n        bool hasVoted = false;\n\n        address[] voters = airlineVotes[airlineAddress];\n\n        for (uint i = 0; i < voters.length; i++) {\n            if(voters[i] == voterAddress){\n                hasVoted = true;\n            }\n        }\n        \n        require(!hasVoted, \"You have already voted for this airline.\");  \n        _;\n    }\n\n    modifier requireNotActive(address account) \n    {\n        require(!airlines[account].isActive, \"Airline is already active.\");  \n        _;\n    }\n\n    /**\n    * @dev Modifier that requires the \"ContractOwner\" account to be the function caller\n    */\n    modifier requireContractOwner()\n    {\n        require(msg.sender == contractOwner, \"Caller is not contract owner\");\n        _;\n    }\n\n    modifier isCallerAuthorized()\n    {\n        require(authorizedContracts[msg.sender] == 1, \"Caller is not authorized\");\n        _;\n    }\n\n    function authorizeContract(address dataContract) external requireContractOwner{\n        authorizedContracts[dataContract] = 1;\n    }\n\n    function deauthorizeContract(address dataContract) external requireContractOwner{\n        delete authorizedContracts[dataContract];\n    }\n\n    function isAirlineActive(address airlineAddress) public view returns(bool){\n        return airlines[airlineAddress].isActive;\n    }\n\n    function isAirlineRegistered(address airlineAddress) public view returns(bool){\n        return airlines[airlineAddress].isRegistered;\n    }\n    /********************************************************************************************/\n    /*                                       UTILITY FUNCTIONS                                  */\n    /********************************************************************************************/\n\n    /**\n    * @dev Get operating status of contract\n    *\n    * @return A bool that is the current operating status\n    */      \n    function isOperational() \n                            public \n                            view \n                            returns(bool) \n    {\n        return operational;\n    }\n\n    function isContractAuthorized(address contractAddress) \n                            external \n                            view\n                            returns(bool) \n    {\n        return (authorizedContracts[contractAddress] == 1);\n    }\n\n    /**\n    * @dev Sets contract operations on/off\n    *\n    * When operational mode is disabled, all write transactions except for this one will fail\n    */    \n    function setOperatingStatus\n                            (\n                                bool mode\n                            ) \n                            external\n                            requireContractOwner \n    {\n        operational = mode;\n    }\n\n    /********************************************************************************************/\n    /*                                     SMART CONTRACT FUNCTIONS                             */\n    /********************************************************************************************/\n\n   /**\n    * @dev Add an airline to the registration queue\n    *      Can only be called from FlightSuretyApp contract\n    *\n    */   \n    function registerAirline\n                            (\n                                address airlineAddress,\n                                string airlineName,\n                                address voterAddress\n                            )\n                            external\n                            requireHasNotVoted(airlineAddress, voterAddress)\n                            requireNotActive(airlineAddress)\n                            isCallerAuthorized\n                            returns(bool success)\n    {\n        airlineVotes[airlineAddress].push(msg.sender);\n\n        // First 4 airlines can register directly\n        if(airlineCount < MIN_AIRLINES_TO_VOTE){\n            require(airlines[airlineAddress].voteCount == 0, \"Airline is already registered but not funded.\");\n            airlines[airlineAddress] = Airline({\n                fund:0,\n                voteCount:1,\n                airlineName:airlineName,\n                airlineAddress:airlineAddress,\n                isActive: false,\n                isRegistered: true\n            });\n            airlineCount++;     \n        }else{\n            // Add vote to this airline\n            if(airlines[airlineAddress].voteCount==0){\n                airlines[airlineAddress] = Airline({\n                fund:0,\n                voteCount:1,\n                airlineName:airlineName,\n                airlineAddress:airlineAddress,\n                isActive: false,\n                isRegistered: false\n            });\n            airlineCount++; \n            }else{\n                airlines[airlineAddress].voteCount++;\n                // Register airline if enough votes\n                if(airlines[airlineAddress].voteCount>=airlineCount.div(2) && airlines[airlineAddress].isRegistered==false){\n                    airlines[airlineAddress].isRegistered = true;\n                }\n            }\n\n\n        }\n        return true;\n    }\n\n\n   /**\n    * @dev Buy insurance for a flight\n    *\n    */   \n    function buy\n                            (     \n                                string flightId                     \n                            )\n                            external\n                            payable\n                            requireIsOperational\n                            requirePaymentInRange\n    {\n        // Create passenger if it does not exist\n        if(passengers[msg.sender].passengerAddress != msg.sender){\n            passengers[msg.sender] = Passenger({passengerAddress: msg.sender, credit: 0});\n        }\n\n        // Store insured value and transfer\n        passengers[msg.sender].insuredFlights[flightId] = msg.value;\n        msg.sender.transfer(msg.value);\n    }\n\n    function getInsuredAmount\n                            (     \n                                string flightId                     \n                            )\n                            external\n                            view\n                            requireIsOperational\n                            returns(uint256)\n    {\n        return passengers[msg.sender].insuredFlights[flightId];\n    }\n\n    /**\n     *  @dev Credits payouts to insurees\n    */\n    function creditInsurees\n                                (\n                                )\n                                external\n                                pure\n    {\n    }\n    \n\n    /**\n     *  @dev Transfers eligible payout funds to insuree\n     *\n    */\n    function pay\n                            (\n                            )\n                            external\n                            pure\n    {\n    }\n\n   /**\n    * @dev Initial funding for the insurance. Unless there are too many delayed flights\n    *      resulting in insurance payouts, the contract should be self-sustaining\n    *\n    */   \n    function fund\n                            (\n                                address payerAddress,\n                                uint amount\n                            )\n                            public\n                            payable\n                            requireIsOperational\n    {\n        airlines[payerAddress].fund = airlines[payerAddress].fund.add(amount);\n        if(airlines[payerAddress].fund>=MINIMUM_AIRLINE_FUNDING && !airlines[payerAddress].isActive){\n            airlines[payerAddress].isActive = true;\n        }\n    }\n\n    function getFlightKey\n                        (\n                            address airline,\n                            string memory flight,\n                            uint256 timestamp\n                        )\n                        pure\n                        internal\n                        returns(bytes32) \n    {\n        return keccak256(abi.encodePacked(airline, flight, timestamp));\n    }\n\n    /**\n    * @dev Fallback function for funding smart contract.\n    *\n    */\n    function() \n                            external \n                            payable \n    {\n        fund(msg.sender, msg.value);\n    }\n\n\n}\n\n",
  "sourcePath": "/Users/leelim/Dropbox/406 - Blockchain Projects/03-udacity_blockchain_developer/flight-insurance/contracts/FlightSuretyData.sol",
  "compiler": {
    "name": "solc",
    "version": "0.4.26+commit.4563c3fc.Emscripten.clang"
  },
  "schemaVersion": "3.0.0",
  "updatedAt": "2022-07-12T16:57:30.554Z",
  "devdoc": {
    "methods": {
      "buy(string)": {
        "details": "Buy insurance for a flight    "
      },
      "creditInsurees()": {
        "details": "Credits payouts to insurees"
      },
      "fund(address,uint256)": {
        "details": "Initial funding for the insurance. Unless there are too many delayed flights     resulting in insurance payouts, the contract should be self-sustaining    "
      },
      "isOperational()": {
        "details": "Get operating status of contract",
        "return": "A bool that is the current operating status"
      },
      "pay()": {
        "details": "Transfers eligible payout funds to insuree    "
      },
      "registerAirline(address,string,address)": {
        "details": "Add an airline to the registration queue     Can only be called from FlightSuretyApp contract    "
      },
      "setOperatingStatus(bool)": {
        "details": "Sets contract operations on/off    * When operational mode is disabled, all write transactions except for this one will fail"
      }
    }
  },
  "userdoc": {
    "methods": {}
  }
}